:020000040000FA
:040000000DEF00F010
:0400080042EF23F0B0
:06001800FF0037EF24F0A9
:1038000000436F6E7465783120414E3A2025640D77
:103810000A00436F6E7465783220414E3A20256469
:103820000D0A00436F6E7465783320414E3A2025AF
:10383000640D0A00436F6E7465783420414E3A205F
:1038400025640D0A000020C538F521C539F522C5CB
:103850003AF523C53BF524C53CF525C53DF526C500
:103860003EF527C53FF53FBE38EF1CF03BEF1CF09F
:10387000010E3CEF1CF0000E366E376A36503710E2
:10388000D8B445EF1CF047EF1CF057EF1CF03F1E7B
:103890003E1E3D1E3C1E3B1E3A1E391E386C000E5D
:1038A00039223A223B223C223D223E223F22050180
:1038B0006EBF5DEF1CF05FEF1CF060EF1CF06F93CC
:1038C0006EBF6DEF1CF06E5106E16D05D8B06BEF69
:1038D0001CF06DEF1CF073EF1CF0000E336E010E48
:1038E000326E77EF1CF06DC532F56EC533F56BC5E2
:1038F00034F56CC535F536503710D8A482EF1CF07E
:1039000084EF1CF08BEF1CF06FA589EF1CF08BEFA0
:103910001CF08EEF1CF03406D8A03506000E416E68
:103920001F0E406E000EA36F12EF1DF04006D8A0D0
:103930004106840E4024D96E050E4120DA6E38C54A
:1039400001F539C502F53AC503F53BC504F53CC59B
:1039500005F53DC506F53EC507F53FC508F50A0E58
:10396000096E000E0A6E000E0B6E000E0C6E000E3D
:103970000D6E000E0E6E000E0F6E000E106E79ECC6
:1039800020F001C528F502C529F503C52AF504C5AF
:103990002BF505C52CF506C52DF507C52EF508C573
:1039A0002FF528C513F52AC514F58DEC23F0135017
:1039B000300FDF6E3206D8A033063406D8A03506A5
:1039C00038C501F539C502F53AC503F53BC504F51F
:1039D0003CC505F53DC506F53EC507F53FC508F5EF
:1039E0000A0E096E000E0A6E000E0B6E000E0C6EB3
:1039F000000E0D6E000E0E6E000E0F6E000E106E9D
:103A0000B5EC1FF001C538F502C539F503C53AF527
:103A100004C53BF505C53CF506C53DF507C53EF5B6
:103A200008C53FF541BE1DEF1DF0415008E14004BF
:103A3000D8A01DEF1DF01FEF1DF050EF1DF0385006
:103A400039103A103B103C103D103E103F10D8A4E6
:103A50002CEF1DF02EEF1DF096EF1CF033BE3BEF68
:103A60001DF0335006E13204D8B039EF1DF03BEFC2
:103A70001DF096EF1CF035BE46EF1DF0355008E105
:103A80003404D8A046EF1DF048EF1DF050EF1DF0B4
:103A900005016FB34EEF1DF050EF1DF096EF1CF0D7
:103AA00036503710D8A457EF1DF059EF1DF061EFD5
:103AB0001DF005016FA55FEF1DF061EF1DF080EFB8
:103AC0001DF04006D8A0410636503710D8A46BEF41
:103AD0001DF06DEF1DF073EF1DF0000E316E2B0E1B
:103AE000306E77EF1DF0000E316E2D0E306E840EAD
:103AF0004024D96E050E4120DA6E6100C0F4DFF477
:103B00001EC513F51FC514F5840E4024156E050E51
:103B10004120166E34C517F535C518F5D5EC21F0E2
:103B200013C51EF514C51FF51200020E0301F96F2F
:103B3000000EFA6F000ED86F000EFB6F000ED96FEB
:103B4000000EDA6F000EDB6F000EDC6F000EDF6F11
:103B5000000EE06F000EE36F000EE46F000EE56FE5
:103B6000000EE66F000EE76F000EEA6F000EEB6FBF
:103B7000000EEC6FA00EEE6F000EEF6F000EF06FF8
:103B8000000EF16F000EF26F000EF36F000EF46F77
:103B9000100EF56F000EF66F000EF76F000EF86F47
:103BA000800EFC6F010EFB6F000ED96F000EDA6FF6
:103BB000000EDB6F000EDC6F000EDF6F000EE06F9B
:103BC000000EE36F000EE46F000EE56F000EE66F6F
:103BD000000EE76F000EEA6F000EEB6F010EEC6F48
:103BE000A00EEE6F000EEF6F000EF06F000EF16F83
:103BF000000EF26F000EF36F000EF46F100EF56FF3
:103C0000000EF66F000EF76F000EF86F800EFD6F5E
:103C1000020EFB6F000ED96F000EDA6F000EDB6F25
:103C2000000EDC6F000EDF6F000EE06F000EE36F22
:103C3000000EE46F000EE56F000EE66F000EE76FFA
:103C4000000EEA6F000EEB6F000EEC6FA00EEE6F31
:103C5000000EEF6F000EF06F000EF16F000EF26FAE
:103C6000000EF36F000EF46F100EF56F000EF66F7E
:103C7000000EF76F000EF86F800EFE6F030EFB6FE5
:103C8000000ED96F000EDA6F000EDB6F000EDC6FD6
:103C9000000EDF6F000EE06F000EE36F000EE46FAA
:103CA000000EE56F000EE66F000EE76F000EEA6F84
:103CB000000EEB6F010EEC6FA00EEE6F000EEF6FBB
:103CC000000EF06F000EF16F000EF26F000EF36F3A
:103CD000000EF46F100EF56F070EF66F000EF76F03
:103CE000000EF86FC00EFF6FAF94AF96B090B09219
:103CF000B094B096A086000E0501BB6F000EBC6F9D
:103D0000000EBD6FB0EC24F0000E0501BB6F000E7D
:103D1000BC6F000EBD6FA2EC24F0000E0501BB6F5E
:103D2000000EBC6F000EBD6F9BEC24F0000E050171
:103D3000BB6F000EBC6F000EBD6F94EC24F0B00E94
:103D40000501BB6F490EBC6F000EBD6F8DEC24F0FA
:103D5000000E0501BB6F000EBC6F000EBD6FA9EC1D
:103D600024F0A40E0301F36F1200610010F5D9F4E2
:103D7000610014F5DAF4DEC4F6F4DDC4F7F4000EE5
:103D8000F86E0800F550250AD8A4C9EF1EF0CBEF55
:103D90001EF093EF1FF0610010F5D9F4610014F5E7
:103DA000DAF4DE2A000EDD22000E05016C6F000E33
:103DB0006B6F6BC56FF56CC570F56D696E696100F1
:103DC00010F5D9F4610014F5DAF4DEC4F6F4DDC4BC
:103DD000F7F4000EF86E0800F550640AD8B4F3EF5B
:103DE0001EF0F5EF1EF00BEF1FF0610010F5D9F497
:103DF000610014F5DAF4DEC4F6F4DDC4F7F4000E65
:103E0000F86E0800F550690AD8A409EF1FF00BEF0F
:103E10001FF055EF1FF0610010F5D9F4610014F5A3
:103E2000DAF4DE2A000EDD22610018F5D9F4610013
:103E30001CF5DAF461007CF348F5020EDE26610021
:103E40007CF349F5000EDD22610020F5D9F4610014
:103E500024F5DAF4610078F34AF5610074F34BF568
:103E6000000E4BBEFF0E4C6E4D6E4E6E4F6E506E82
:103E7000516E42C51EF543C51FF54AC520F54BC519
:103E800021F54CC522F54DC523F54EC524F54FC58A
:103E900025F550C526F551C527F523EC1CF01EC5A8
:103EA00042F51FC543F5B4EF1FF0610010F5D9F4DA
:103EB000610014F5DAF4DEC4F6F4DDC4F7F4000EA4
:103EC000F86E0800F550250AD8A469EF1FF06BEFD3
:103ED0001FF084EF1FF0610010F5D9F4610014F5B4
:103EE000DAF4DE2A000EDD22000E046E250E036ECB
:103EF00042C505F543C506F584EC22F0000E436E7D
:103F0000010E426EB4EF1FF0610010F5D9F46100AC
:103F100014F5DAF4DE2A000EDD22000E436E000EE8
:103F2000426EB4EF1FF0610010F5D9F4610014F592
:103F3000DAF4DEC4F6F4DDC4F7F4000EF86E08001F
:103F4000F550036E046A42C505F543C506F584ECD9
:103F500022F0610010F5D9F4610014F5DAF4DE2ADC
:103F6000000EDD227EEF1FF01200000E126E10BE5A
:103F7000BEEF1FF0BCEF1FF0D0EF1FF0101E0F1EA2
:103F80000E1E0D1E0C1E0B1E0A1E096C000E0A22B0
:103F90000B220C220D220E220F221022010E126E75
:103FA00008BED7EF1FF0D5EF1FF0E9EF1FF0081E96
:103FB000071E061E051E041E031E021E016C000EB7
:103FC0000222032204220522062207220822010ED1
:103FD000121A21EE13F1070EDE6AE806FDE209501F
:103FE0000A100B100C100D100E100F101010D8B47A
:103FF000FCEF1FF0FEEF1FF050EF20F0010E116EEE
:104000000CEF20F0D89009360A360B360C360D36F8
:104010000E360F361036112A10AE11EF20F013EFC6
:1040200020F002EF20F0D8901336143615361636ED
:104030001736183619361A360950015C0A500258DC
:104040000B5003580C5004580D5005580E5006588C
:104050000F50075810500858D8A031EF20F033EF18
:1040600020F044EF20F00950015E0A50025A0B5034
:10407000035A0C50045A0D50055A0E50065A0F5050
:10408000075A1050085A1380D89010320F320E324F
:104090000D320C320B320A320932112E13EF20F09E
:1040A0001250D8B456EF20F058EF20F068EF20F00F
:1040B0001A1E191E181E171E161E151E141E136C0E
:1040C000000E1422152216221722182219221A2253
:1040D00013C501F514C502F515C503F516C504F59C
:1040E00017C505F518C506F519C507F51AC508F56C
:1040F0001200000E126E08BE82EF20F080EF20F05A
:1041000094EF20F0081E071E061E051E041E031E47
:10411000021E016C000E0222032204220522062246
:1041200007220822010E126E10BE9BEF20F099EFBD
:1041300020F0ABEF20F0101E0F1E0E1E0D1E0C1EE9
:104140000B1E0A1E096C000E0A220B220C220D22E5
:104150000E220F22102209500A100B100C100D1005
:104160000E100F101010D8B4B8EF20F0BAEF20F0F6
:1041700002EF21F0010E116EC8EF20F0D890093641
:104180000A360B360C360D360E360F361036112A1F
:1041900010AECDEF20F0CFEF20F0BEEF20F00950B1
:1041A000015C0A5002580B5003580C5004580D5033
:1041B00005580E5006580F50075810500858D8A0F0
:1041C000E4EF20F0E6EF20F0F6EF20F00950015E7A
:1041D0000A50025A0B50035A0C50045A0D50055AFB
:1041E0000E50065A0F50075A1050085AD8901032E5
:1041F0000F320E320D320C320B320A320932112ECE
:10420000CFEF20F01250D8B408EF21F00AEF21F0E0
:104210001AEF21F0081E071E061E051E041E031EAF
:10422000021E016C000E0222032204220522062235
:104230000722082201C501F502C502F503C503F5F1
:1042400004C504F505C505F506C506F507C507F55A
:1042500008C508F51200000EBDEC24F06DEC24F04A
:1042600001C581F502C582F50301EC05D8A43BEF39
:1042700021F03DEF21F041EF21F0000EEC6F43EF14
:1042800021F0010EEC6F010EBDEC24F06DEC24F07A
:1042900001C57FF502C580F50301EC05D8A453EFF5
:1042A00021F055EF21F059EF21F0000EEC6F5BEF9C
:1042B00021F0010EEC6F020EBDEC24F06DEC24F049
:1042C00001C57DF502C57EF50301EC05D8A46BEFB1
:1042D00021F06DEF21F071EF21F0000EEC6F73EF24
:1042E00021F0010EEC6F030EBDEC24F06DEC24F018
:1042F00001C57BF502C57CF50301EC05D8A483EF6D
:1043000021F085EF21F089EF21F0000EEC6F8BEFAB
:1043100021F0010EEC6FD3EC24F0000EBDEC24F084
:10432000D0EC24F0C3B697EF21F09AEF21F0010E04
:104330009BEF21F0000EFF0A0501B66FB647B647A6
:10434000B647C350B619F70BB619C36E010E5A6EB5
:10435000380E5B6E81C55CF582C55DF524EC24F0FA
:10436000120E5A6E380E5B6E7FC55CF580C55DF52A
:1043700024EC24F0230E5A6E380E5B6E7DC55CF57E
:104380007EC55DF524EC24F0340E5A6E380E5B6E5B
:104390007BC55CF57CC55DF524EC24F00F0E5A6EF0
:1043A000380E5B6E24EC24F0120005016FA1DBEFE8
:1043B00021F0DDEF21F0E7EF21F015C50CF516C572
:1043C0000DF513C50EF514C50FF56BEC23F018BEF3
:1043D000ECEF21F0EEEF21F0F4EF21F017C51CF522
:1043E00018C51DF5F8EF21F0000E1D6E000E1C6EB5
:1043F000000E1B6E000E1A6E0AEF22F0000E046E05
:10440000200E036E13C505F514C506F584EC22F0E5
:104410001A4A1B2A1C501A5C1B50800A196E1D5028
:10442000800A1958D8A017EF22F019EF22F0FEEFFA
:1044300021F005016FB11FEF22F021EF22F02BEFE9
:1044400022F015C50CF516C50DF513C50EF514C5EE
:104450000FF56BEC23F015C501F516C502F5ADECB3
:1044600023F01C500124136E1D500220146E120004
:10447000000EC26E000EC16E000EBE6E000EC36E48
:10448000000EBF6E000EC06E070ECA6EF60ECB6E2B
:10449000C668C768C868C968040118691069EF0E62
:1044A000086F070E206FF40E286F0069000E196F59
:1044B000000E296F000E216F000E096F000E016FB4
:1044C000000E116F000E226F000E2A6F000E026F99
:1044D000000E0A6F000E126F000E1A6F03690B694F
:1044E00013691B69070E236F2B6904690C69146932
:1044F0001C690F0E246F2C690C0E0201696F200ECF
:10450000296F290E726F120005500610D8B48BEF78
:1045100022F08DEF22F096EF22F005500610D8A47D
:1045200094EF22F096EF22F09BEF22F00350C2ECC2
:1045300024F0CEEF22F020EE04F00550D9260650EC
:10454000DA22DE50DE10D8B4A8EF22F0AAEF22F073
:10455000C5EF22F020EE04F00550D9260650DA22ED
:1045600010EE02F00550E1260650E222DE50E65C35
:10457000E650800A0B6EDE50800A0B58D8B0C3EFAD
:1045800022F0C5EF22F0CEEF22F020EE02F005502F
:10459000D9260650DA22DE2A000EDD221200000E95
:1045A0000201A56F000EA66F000EA76F000EA86F88
:1045B000000EA96F000EAA6FB00EAB6F800EAC6F2D
:1045C000000EAD6F110EAE6F040EAF6F000EB06F28
:1045D000000EB16F000EB26F000EB36F000E05013A
:1045E000BB6F000EBC6F000EBD6F7FEC24F0000EA1
:1045F0000501BB6F000EBC6F000EBD6F78EC24F0A0
:10460000000E0501BB6F000EBC6F000EBD6F86EC87
:1046100024F0000E0501836F120054C558F555C5EE
:1046200059F5000E05016A6F000E696F2BEF23F03C
:1046300052C542F553C543F5580E446E050E456EFE
:1046400056C546F557C547F5B5EC1EF04250050175
:10465000692743506A23610060F5F6F4610064F550
:10466000F7F4000EF86E0800F5500009D8A43BEFEF
:1046700023F03DEF23F018EF23F069C552F56AC52A
:1046800053F512006100D8F3B7F56100DCF3B8F51B
:104690006100E0F3B9F56100D4F3BAF5A0A653EFD9
:1046A00023F055EF23F05EEF23F0B0A65AEF23F08E
:1046B0005CEF23F05EEF23F0CAEC23F06100E8F634
:1046C000F5F46100E4F6F8F46100E0F6F7F4610057
:1046D000DCF6F6F41100000E126E000E116E7CEF87
:1046E00023F010C503F5046A0EC505F50FC506F5E0
:1046F00084EC22F0114A122A11500C24D96E125067
:104700000D20DA6EDF50106E1050D8A48AEF23F01F
:104710008CEF23F071EF23F0120014BE9AEF23F018
:10472000145006E11304D8B098EF23F09AEF23F069
:10473000A8EF23F013C515F514C516F5151E161EA2
:10474000154A162A15C513F516C514F5ACEF23F056
:1047500013C513F514C514F5120001C503F502C500
:1047600004F5B5EF23F0014A022A610004F4D9F4FC
:10477000610008F4DAF4DF50D8A4C1EF23F0C3EFEE
:1047800023F0B3EF23F00350015C016E0450025894
:10479000026E1200B0960501A751A811A911D8B454
:1047A000D4EF23F0D6EF23F0E3EF23F002D8E3EFCA
:1047B00023F00500FA6EA751FD6EA851FE6EA951B7
:1047C000FF6EFA501200120047EC24F0560E05015D
:1047D000BB6F420EBC6F000EBD6F8DEC24F0CDECB4
:1047E00024F0000EB7EC24F0CAEC24F0C7EC24F05F
:1047F000D68EF9EF23F00DEF00F0000E0001606F90
:10480000000E616F000E626F000E636F000E646F2A
:10481000000E656F000E666F000E676F000E686F0A
:104820001200200E0001AD6F000EAF6F000EB36FCF
:10483000020EB16F000EB06FB2A121EF24F023EF92
:1048400024F01CEF24F012005C0E5E6E050E5F6E0D
:10485000000E526E000E536E5AC554F55BC555F5E9
:104860005E0E566E050E576E0DEC23F0120001EE33
:1048700060F1440EEE6AE806FDE10401080E5D6F8A
:10488000000E5E6F000E5F6F0001E4EF23F0D6ECC8
:1048900024F0FDEC23F038EC22F095EC1DF011EC47
:1048A00024F062EC24F0CFEC22F01200016EB2A2F0
:1048B0005CEF24F05EEF24F057EF24F0610004F485
:1048C000A3F212004C0E03011B6FF30E196F000EC2
:1048D000186FB19E840E1A6F12000301EB51046E23
:1048E000036AEA510324016E000E0420026E1200D6
:1048F000BBC563F5BCC564F5BDC565F51200BBC598
:1049000066F5BCC567F5BDC568F51200BBC560F5A9
:10491000BCC561F5BDC562F51200BBC5A7F5BCC538
:10492000A8F5BDC5A9F51200BBC5AAF5BCC5ABF578
:10493000BDC5ACF51200BBC5ADF5BCC5AEF5BDC57A
:10494000AFF51200BBC5B0F5BCC5B1F5BDC5B2F53C
:104950001200BBC5A4F5BCC5A5F5BDC5A6F51200E2
:10496000BBC5B3F5BCC5B4F5BDC5B5F512000501B1
:10497000BB6F6100ECF6FBF31200016E610004F402
:10498000FBF31200026E025056EC24F012000301F9
:104990001A8F12000301F38B12000301F39B120024
:1049A0000301F38B12000301F39B1200D69A12004D
:0249B0001200F3
:020000040020DA
:10000000FF0FFF0FFF0FFF0FFF0FFF0FFF0FFF0F80
:10001000FF0FFF0FFF0FFF0FFF0FFF0FFF0FFF0F70
:020000040030CA
:10000000AAEFF7FF9FFFFFFFFFFFFFFFFFFFFFFFCD
:10001000FFFFFFFFFFFFFFFFFFFFFFFFFFFFFFFFF0
:04002000FFFFFFFFE0
:00000001FF
